{
  "_format": "hh-sol-artifact-1",
  "contractName": "Portfolio",
  "sourceName": "contracts/Portfolio.sol",
  "abi": [
    {
      "inputs": [],
      "name": "approveRequiredMethods",
      "outputs": [],
      "stateMutability": "nonpayable",
      "type": "function"
    },
    {
      "inputs": [],
      "name": "balancePortfolio",
      "outputs": [],
      "stateMutability": "nonpayable",
      "type": "function"
    },
    {
      "inputs": [],
      "name": "buyToken",
      "outputs": [],
      "stateMutability": "nonpayable",
      "type": "function"
    },
    {
      "inputs": [],
      "name": "calculatePortfolio",
      "outputs": [],
      "stateMutability": "nonpayable",
      "type": "function"
    },
    {
      "inputs": [
        {
          "internalType": "uint256",
          "name": "amountIn",
          "type": "uint256"
        },
        {
          "internalType": "address",
          "name": "tokenA",
          "type": "address"
        },
        {
          "internalType": "address",
          "name": "tokenB",
          "type": "address"
        }
      ],
      "name": "getAmount",
      "outputs": [
        {
          "internalType": "uint256[]",
          "name": "amounts",
          "type": "uint256[]"
        }
      ],
      "stateMutability": "view",
      "type": "function"
    },
    {
      "inputs": [],
      "name": "getTokenAmountDecrease",
      "outputs": [
        {
          "components": [
            {
              "internalType": "address",
              "name": "tokenAddress",
              "type": "address"
            },
            {
              "internalType": "uint256",
              "name": "tokenPercent",
              "type": "uint256"
            },
            {
              "internalType": "uint256",
              "name": "tokenAmount",
              "type": "uint256"
            }
          ],
          "internalType": "struct Portfolio.TokenDetails[]",
          "name": "",
          "type": "tuple[]"
        }
      ],
      "stateMutability": "view",
      "type": "function"
    },
    {
      "inputs": [],
      "name": "getTokenAmountIncrease",
      "outputs": [
        {
          "components": [
            {
              "internalType": "address",
              "name": "tokenAddress",
              "type": "address"
            },
            {
              "internalType": "uint256",
              "name": "tokenPercent",
              "type": "uint256"
            },
            {
              "internalType": "uint256",
              "name": "tokenAmount",
              "type": "uint256"
            }
          ],
          "internalType": "struct Portfolio.TokenDetails[]",
          "name": "",
          "type": "tuple[]"
        }
      ],
      "stateMutability": "view",
      "type": "function"
    },
    {
      "inputs": [],
      "name": "getUserApproveMethods",
      "outputs": [
        {
          "internalType": "bool",
          "name": "",
          "type": "bool"
        }
      ],
      "stateMutability": "view",
      "type": "function"
    },
    {
      "inputs": [],
      "name": "getUserContractStakedRewards",
      "outputs": [
        {
          "internalType": "uint256",
          "name": "",
          "type": "uint256"
        }
      ],
      "stateMutability": "view",
      "type": "function"
    },
    {
      "inputs": [],
      "name": "getUserDetails",
      "outputs": [
        {
          "components": [
            {
              "internalType": "address",
              "name": "tokenAddress",
              "type": "address"
            },
            {
              "internalType": "uint256",
              "name": "tokenPercent",
              "type": "uint256"
            },
            {
              "internalType": "uint256",
              "name": "tokenAmount",
              "type": "uint256"
            }
          ],
          "internalType": "struct Portfolio.TokenDetails[]",
          "name": "",
          "type": "tuple[]"
        }
      ],
      "stateMutability": "view",
      "type": "function"
    },
    {
      "inputs": [],
      "name": "getUserStakedRewards",
      "outputs": [
        {
          "internalType": "uint256",
          "name": "",
          "type": "uint256"
        }
      ],
      "stateMutability": "view",
      "type": "function"
    },
    {
      "inputs": [],
      "name": "getUserTotalStakedAmount",
      "outputs": [
        {
          "internalType": "uint256",
          "name": "",
          "type": "uint256"
        }
      ],
      "stateMutability": "view",
      "type": "function"
    },
    {
      "inputs": [],
      "name": "getUserTotalTokenAmount",
      "outputs": [
        {
          "internalType": "uint256",
          "name": "",
          "type": "uint256"
        }
      ],
      "stateMutability": "view",
      "type": "function"
    },
    {
      "inputs": [],
      "name": "router",
      "outputs": [
        {
          "internalType": "contract IUniswapV2Router01",
          "name": "",
          "type": "address"
        }
      ],
      "stateMutability": "view",
      "type": "function"
    },
    {
      "inputs": [],
      "name": "sellToken",
      "outputs": [],
      "stateMutability": "nonpayable",
      "type": "function"
    },
    {
      "inputs": [],
      "name": "setWithdraw",
      "outputs": [],
      "stateMutability": "nonpayable",
      "type": "function"
    },
    {
      "inputs": [
        {
          "internalType": "string",
          "name": "_validatorAddr",
          "type": "string"
        },
        {
          "internalType": "uint256",
          "name": "_amount",
          "type": "uint256"
        }
      ],
      "name": "stake",
      "outputs": [
        {
          "internalType": "int64",
          "name": "completionTime",
          "type": "int64"
        }
      ],
      "stateMutability": "nonpayable",
      "type": "function"
    },
    {
      "inputs": [],
      "name": "tEVMOS",
      "outputs": [
        {
          "internalType": "address",
          "name": "",
          "type": "address"
        }
      ],
      "stateMutability": "view",
      "type": "function"
    },
    {
      "inputs": [
        {
          "internalType": "address",
          "name": "_tokenAddress",
          "type": "address"
        },
        {
          "internalType": "uint256",
          "name": "_tokenPercent",
          "type": "uint256"
        }
      ],
      "name": "tokenDestribution",
      "outputs": [],
      "stateMutability": "nonpayable",
      "type": "function"
    },
    {
      "inputs": [
        {
          "internalType": "string",
          "name": "_validatorAddr",
          "type": "string"
        },
        {
          "internalType": "uint256",
          "name": "_amount",
          "type": "uint256"
        }
      ],
      "name": "unStake",
      "outputs": [
        {
          "internalType": "int64",
          "name": "completionTime",
          "type": "int64"
        }
      ],
      "stateMutability": "nonpayable",
      "type": "function"
    },
    {
      "inputs": [
        {
          "internalType": "string",
          "name": "_validatorAddr",
          "type": "string"
        }
      ],
      "name": "withdrawRewards",
      "outputs": [
        {
          "components": [
            {
              "internalType": "string",
              "name": "denom",
              "type": "string"
            },
            {
              "internalType": "uint256",
              "name": "amount",
              "type": "uint256"
            }
          ],
          "internalType": "struct Coin[]",
          "name": "amount",
          "type": "tuple[]"
        }
      ],
      "stateMutability": "nonpayable",
      "type": "function"
    },
    {
      "inputs": [],
      "name": "withdrawUserRewards",
      "outputs": [],
      "stateMutability": "nonpayable",
      "type": "function"
    }
  ],
  "bytecode": "0x6080604052604051806040016040528060405180606001604052806023815260200162004ba660239139815260200160405180606001604052806025815260200162004b4a6025913981525060009060026200005d929190620000cc565b50604051806040016040528060405180606001604052806032815260200162004b1860329139815260200160405180606001604052806037815260200162004b6f603791398152506001906002620000b7929190620000cc565b50348015620000c557600080fd5b506200051a565b82805482825590600052602060002090810192821562000119579160200282015b828111156200011857825182908162000107919062000433565b5091602001919060010190620000ed565b5b5090506200012891906200012c565b5090565b5b8082111562000150576000818162000146919062000154565b506001016200012d565b5090565b508054620001629062000222565b6000825580601f1062000176575062000197565b601f0160209004906000526020600020908101906200019691906200019a565b5b50565b5b80821115620001b55760008160009055506001016200019b565b5090565b600081519050919050565b7f4e487b7100000000000000000000000000000000000000000000000000000000600052604160045260246000fd5b7f4e487b7100000000000000000000000000000000000000000000000000000000600052602260045260246000fd5b600060028204905060018216806200023b57607f821691505b602082108103620002515762000250620001f3565b5b50919050565b60008190508160005260206000209050919050565b60006020601f8301049050919050565b600082821b905092915050565b600060088302620002bb7fffffffffffffffffffffffffffffffffffffffffffffffffffffffffffffffff826200027c565b620002c786836200027c565b95508019841693508086168417925050509392505050565b6000819050919050565b6000819050919050565b6000620003146200030e6200030884620002df565b620002e9565b620002df565b9050919050565b6000819050919050565b6200033083620002f3565b620003486200033f826200031b565b84845462000289565b825550505050565b600090565b6200035f62000350565b6200036c81848462000325565b505050565b5b8181101562000394576200038860008262000355565b60018101905062000372565b5050565b601f821115620003e357620003ad8162000257565b620003b8846200026c565b81016020851015620003c8578190505b620003e0620003d7856200026c565b83018262000371565b50505b505050565b600082821c905092915050565b60006200040860001984600802620003e8565b1980831691505092915050565b6000620004238383620003f5565b9150826002028217905092915050565b6200043e82620001b9565b67ffffffffffffffff8111156200045a5762000459620001c4565b5b62000466825462000222565b6200047382828562000398565b600060209050601f831160018114620004ab576000841562000496578287015190505b620004a2858262000415565b86555062000512565b601f198416620004bb8662000257565b60005b82811015620004e557848901518255600182019150602085019450602081019050620004be565b8683101562000505578489015162000501601f891682620003f5565b8355505b6001600288020188555050505b505050505050565b6145ee806200052a6000396000f3fe608060405234801561001057600080fd5b50600436106101425760003560e01c8063a4821719116100b8578063e38bd3c91161007c578063e38bd3c9146102f7578063e83ccdf714610301578063f7d0e7761461031f578063f887ea401461033d578063f89207f81461035b578063fcdf9c061461036557610142565b8063a48217191461028b578063b661e0b214610295578063c6e79b911461029f578063c9409ae6146102a9578063dfa88452146102c757610142565b80637a22d9d31161010a5780637a22d9d3146101ed5780637e2ce1d5146101f75780638f10a6e814610215578063942886be146102335780639494c8ae146102515780639769f0b01461028157610142565b806315d1168f1461014757806326a14e9a146101655780632922fd0e1461019557806349c34e89146101b35780635ae935c2146101d1575b600080fd5b61014f610395565b60405161015c9190613058565b60405180910390f35b61017f600480360381019061017a91906131f9565b6103dc565b60405161018c9190613271565b60405180910390f35b61019d610576565b6040516101aa91906133cd565b60405180910390f35b6101bb61067c565b6040516101c89190613058565b60405180910390f35b6101eb60048036038101906101e6919061341b565b6106c3565b005b6101f5610bc7565b005b6101ff610d10565b60405161020c9190613058565b60405180910390f35b61021d610d57565b60405161022a919061346a565b60405180910390f35b61023b610d6f565b60405161024891906133cd565b60405180910390f35b61026b600480360381019061026691906131f9565b610e75565b6040516102789190613271565b60405180910390f35b610289610f8d565b005b6102936116cd565b005b61029d611dc8565b005b6102a7611fe9565b005b6102b16121ee565b6040516102be91906134a0565b60405180910390f35b6102e160048036038101906102dc91906134bb565b612242565b6040516102ee91906135bd565b60405180910390f35b6102ff6123cf565b005b610309612b12565b6040516103169190613058565b60405180910390f35b610327612b59565b60405161033491906133cd565b60405180910390f35b610345612c5f565b604051610352919061363e565b60405180910390f35b610363612c77565b005b61037f600480360381019061037a9190613659565b612e8f565b60405161038c9190613820565b60405180910390f35b6000600660003373ffffffffffffffffffffffffffffffffffffffff1673ffffffffffffffffffffffffffffffffffffffff16815260200190815260200160002054905090565b600081600460003373ffffffffffffffffffffffffffffffffffffffff1673ffffffffffffffffffffffffffffffffffffffff168152602001908152602001600020541015610460576040517f08c379a00000000000000000000000000000000000000000000000000000000081526004016104579061389f565b60405180910390fd5b6104a9600460003373ffffffffffffffffffffffffffffffffffffffff1673ffffffffffffffffffffffffffffffffffffffff1681526020019081526020016000205483612fe7565b600460003373ffffffffffffffffffffffffffffffffffffffff1673ffffffffffffffffffffffffffffffffffffffff1681526020019081526020016000208190555061080073ffffffffffffffffffffffffffffffffffffffff16633edab33c3385856040518463ffffffff1660e01b815260040161052b939291906138f8565b6020604051808303816000875af115801561054a573d6000803e3d6000fd5b505050506040513d601f19601f8201168201806040525081019061056e9190613962565b905092915050565b6060600860003373ffffffffffffffffffffffffffffffffffffffff1673ffffffffffffffffffffffffffffffffffffffff168152602001908152602001600020805480602002602001604051908101604052809291908181526020016000905b8282101561067357838290600052602060002090600302016040518060600160405290816000820160009054906101000a900473ffffffffffffffffffffffffffffffffffffffff1673ffffffffffffffffffffffffffffffffffffffff1673ffffffffffffffffffffffffffffffffffffffff16815260200160018201548152602001600282015481525050815260200190600101906105d7565b50505050905090565b6000600360003373ffffffffffffffffffffffffffffffffffffffff1673ffffffffffffffffffffffffffffffffffffffff16815260200190815260200160002054905090565b6000600560003373ffffffffffffffffffffffffffffffffffffffff1673ffffffffffffffffffffffffffffffffffffffff1681526020019081526020016000205411610745576040517f08c379a000000000000000000000000000000000000000000000000000000000815260040161073c906139db565b60405180910390fd5b600061079a610793600560003373ffffffffffffffffffffffffffffffffffffffff1673ffffffffffffffffffffffffffffffffffffffff1681526020019081526020016000205484612ffd565b6064613013565b905060006107bd8273f1361dc7dfb724bd29fe7ade0cdf9785f2bc20e686612242565b6001815181106107d0576107cf6139fb565b5b60200260200101519050610823600560003373ffffffffffffffffffffffffffffffffffffffff1673ffffffffffffffffffffffffffffffffffffffff1681526020019081526020016000205483612fe7565b600560003373ffffffffffffffffffffffffffffffffffffffff1673ffffffffffffffffffffffffffffffffffffffff168152602001908152602001600020819055506000600267ffffffffffffffff811115610883576108826130a2565b5b6040519080825280602002602001820160405280156108b15781602001602082028036833780820191505090505b50905073f1361dc7dfb724bd29fe7ade0cdf9785f2bc20e6816000815181106108dd576108dc6139fb565b5b602002602001019073ffffffffffffffffffffffffffffffffffffffff16908173ffffffffffffffffffffffffffffffffffffffff1681525050848160018151811061092c5761092b6139fb565b5b602002602001019073ffffffffffffffffffffffffffffffffffffffff16908173ffffffffffffffffffffffffffffffffffffffff168152505073f1361dc7dfb724bd29fe7ade0cdf9785f2bc20e673ffffffffffffffffffffffffffffffffffffffff1663095ea7b37372bd489d3cf0e9cc36af6e306ff53e56d0f9efb4856040518363ffffffff1660e01b81526004016109c9929190613a2a565b6020604051808303816000875af11580156109e8573d6000803e3d6000fd5b505050506040513d601f19601f82011682018060405250810190610a0c9190613a7f565b5060007372bd489d3cf0e9cc36af6e306ff53e56d0f9efb473ffffffffffffffffffffffffffffffffffffffff166338ed173985858533426040518663ffffffff1660e01b8152600401610a64959493929190613b5b565b6000604051808303816000875af1158015610a83573d6000803e3d6000fd5b505050506040513d6000823e3d601f19601f82011682018060405250810190610aac9190613c92565b600181518110610abf57610abe6139fb565b5b60200260200101519050600760003373ffffffffffffffffffffffffffffffffffffffff1673ffffffffffffffffffffffffffffffffffffffff16815260200190815260200160002060405180606001604052808873ffffffffffffffffffffffffffffffffffffffff16815260200187815260200183815250908060018154018082558091505060019003906000526020600020906003020160009091909190915060008201518160000160006101000a81548173ffffffffffffffffffffffffffffffffffffffff021916908373ffffffffffffffffffffffffffffffffffffffff16021790555060208201518160010155604082015181600201555050505050505050565b600061080173ffffffffffffffffffffffffffffffffffffffff16635a9d9a963361040073ffffffffffffffffffffffffffffffffffffffff1663f958a98c306040518263ffffffff1660e01b8152600401610c239190613d27565b6000604051808303816000875af1158015610c42573d6000803e3d6000fd5b505050506040513d6000823e3d601f19601f82011682018060405250810190610c6b9190613dc5565b6040518363ffffffff1660e01b8152600401610c88929190613e0e565b6020604051808303816000875af1158015610ca7573d6000803e3d6000fd5b505050506040513d601f19601f82011682018060405250810190610ccb9190613a7f565b905080610d0d576040517f08c379a0000000000000000000000000000000000000000000000000000000008152600401610d0490613e8a565b60405180910390fd5b50565b6000600560003373ffffffffffffffffffffffffffffffffffffffff1673ffffffffffffffffffffffffffffffffffffffff16815260200190815260200160002054905090565b73f1361dc7dfb724bd29fe7ade0cdf9785f2bc20e681565b6060600760003373ffffffffffffffffffffffffffffffffffffffff1673ffffffffffffffffffffffffffffffffffffffff168152602001908152602001600020805480602002602001604051908101604052809291908181526020016000905b82821015610e6c57838290600052602060002090600302016040518060600160405290816000820160009054906101000a900473ffffffffffffffffffffffffffffffffffffffff1673ffffffffffffffffffffffffffffffffffffffff1673ffffffffffffffffffffffffffffffffffffffff1681526020016001820154815260200160028201548152505081526020019060010190610dd0565b50505050905090565b6000610ec0600460003373ffffffffffffffffffffffffffffffffffffffff1673ffffffffffffffffffffffffffffffffffffffff1681526020019081526020016000205483613029565b600460003373ffffffffffffffffffffffffffffffffffffffff1673ffffffffffffffffffffffffffffffffffffffff1681526020019081526020016000208190555061080073ffffffffffffffffffffffffffffffffffffffff166353266bbb3385856040518463ffffffff1660e01b8152600401610f42939291906138f8565b6020604051808303816000875af1158015610f61573d6000803e3d6000fd5b505050506040513d601f19601f82011682018060405250810190610f859190613962565b905092915050565b60005b600860003373ffffffffffffffffffffffffffffffffffffffff1673ffffffffffffffffffffffffffffffffffffffff168152602001908152602001600020805490508110156116ca5760005b600760003373ffffffffffffffffffffffffffffffffffffffff1673ffffffffffffffffffffffffffffffffffffffff168152602001908152602001600020805490508110156116b657600760003373ffffffffffffffffffffffffffffffffffffffff1673ffffffffffffffffffffffffffffffffffffffff1681526020019081526020016000208181548110611078576110776139fb565b5b906000526020600020906003020160000160009054906101000a900473ffffffffffffffffffffffffffffffffffffffff1673ffffffffffffffffffffffffffffffffffffffff16600860003373ffffffffffffffffffffffffffffffffffffffff1673ffffffffffffffffffffffffffffffffffffffff1681526020019081526020016000208381548110611111576111106139fb565b5b906000526020600020906003020160000160009054906101000a900473ffffffffffffffffffffffffffffffffffffffff1673ffffffffffffffffffffffffffffffffffffffff16036116a3576000600267ffffffffffffffff81111561117b5761117a6130a2565b5b6040519080825280602002602001820160405280156111a95781602001602082028036833780820191505090505b50905073f1361dc7dfb724bd29fe7ade0cdf9785f2bc20e6816000815181106111d5576111d46139fb565b5b602002602001019073ffffffffffffffffffffffffffffffffffffffff16908173ffffffffffffffffffffffffffffffffffffffff1681525050600760003373ffffffffffffffffffffffffffffffffffffffff1673ffffffffffffffffffffffffffffffffffffffff16815260200190815260200160002082815481106112605761125f6139fb565b5b906000526020600020906003020160000160009054906101000a900473ffffffffffffffffffffffffffffffffffffffff16816001815181106112a6576112a56139fb565b5b602002602001019073ffffffffffffffffffffffffffffffffffffffff16908173ffffffffffffffffffffffffffffffffffffffff168152505060006113e5600860003373ffffffffffffffffffffffffffffffffffffffff1673ffffffffffffffffffffffffffffffffffffffff1681526020019081526020016000208581548110611336576113356139fb565b5b906000526020600020906003020160020154600760003373ffffffffffffffffffffffffffffffffffffffff1673ffffffffffffffffffffffffffffffffffffffff1681526020019081526020016000208581548110611399576113986139fb565b5b906000526020600020906003020160000160009054906101000a900473ffffffffffffffffffffffffffffffffffffffff1673f1361dc7dfb724bd29fe7ade0cdf9785f2bc20e6612242565b6001815181106113f8576113f76139fb565b5b602002602001015190506000600860003373ffffffffffffffffffffffffffffffffffffffff1673ffffffffffffffffffffffffffffffffffffffff1681526020019081526020016000208581548110611455576114546139fb565b5b906000526020600020906003020160020154905073f1361dc7dfb724bd29fe7ade0cdf9785f2bc20e673ffffffffffffffffffffffffffffffffffffffff1663095ea7b37372bd489d3cf0e9cc36af6e306ff53e56d0f9efb4846040518363ffffffff1660e01b81526004016114cc929190613a2a565b6020604051808303816000875af11580156114eb573d6000803e3d6000fd5b505050506040513d601f19601f8201168201806040525081019061150f9190613a7f565b5060007372bd489d3cf0e9cc36af6e306ff53e56d0f9efb473ffffffffffffffffffffffffffffffffffffffff166338ed173984848733426040518663ffffffff1660e01b8152600401611567959493929190613b5b565b6000604051808303816000875af1158015611586573d6000803e3d6000fd5b505050506040513d6000823e3d601f19601f820116820180604052508101906115af9190613c92565b6001815181106115c2576115c16139fb565b5b60200260200101519050611638600760003373ffffffffffffffffffffffffffffffffffffffff1673ffffffffffffffffffffffffffffffffffffffff16815260200190815260200160002086815481106116205761161f6139fb565b5b90600052602060002090600302016002015482613029565b600760003373ffffffffffffffffffffffffffffffffffffffff1673ffffffffffffffffffffffffffffffffffffffff1681526020019081526020016000208681548110611689576116886139fb565b5b906000526020600020906003020160020181905550505050505b80806116ae90613ed9565b915050610fdd565b5080806116c290613ed9565b915050610f90565b50565b60005b600960003373ffffffffffffffffffffffffffffffffffffffff1673ffffffffffffffffffffffffffffffffffffffff16815260200190815260200160002080549050811015611dc55760005b600760003373ffffffffffffffffffffffffffffffffffffffff1673ffffffffffffffffffffffffffffffffffffffff16815260200190815260200160002080549050811015611db157600760003373ffffffffffffffffffffffffffffffffffffffff1673ffffffffffffffffffffffffffffffffffffffff16815260200190815260200160002081815481106117b8576117b76139fb565b5b906000526020600020906003020160000160009054906101000a900473ffffffffffffffffffffffffffffffffffffffff1673ffffffffffffffffffffffffffffffffffffffff16600960003373ffffffffffffffffffffffffffffffffffffffff1673ffffffffffffffffffffffffffffffffffffffff1681526020019081526020016000208381548110611851576118506139fb565b5b906000526020600020906003020160000160009054906101000a900473ffffffffffffffffffffffffffffffffffffffff1673ffffffffffffffffffffffffffffffffffffffff1603611d9e576000600267ffffffffffffffff8111156118bb576118ba6130a2565b5b6040519080825280602002602001820160405280156118e95781602001602082028036833780820191505090505b509050600760003373ffffffffffffffffffffffffffffffffffffffff1673ffffffffffffffffffffffffffffffffffffffff168152602001908152602001600020828154811061193d5761193c6139fb565b5b906000526020600020906003020160000160009054906101000a900473ffffffffffffffffffffffffffffffffffffffff1681600081518110611983576119826139fb565b5b602002602001019073ffffffffffffffffffffffffffffffffffffffff16908173ffffffffffffffffffffffffffffffffffffffff168152505073f1361dc7dfb724bd29fe7ade0cdf9785f2bc20e6816001815181106119e6576119e56139fb565b5b602002602001019073ffffffffffffffffffffffffffffffffffffffff16908173ffffffffffffffffffffffffffffffffffffffff16815250506000600960003373ffffffffffffffffffffffffffffffffffffffff1673ffffffffffffffffffffffffffffffffffffffff1681526020019081526020016000208481548110611a7357611a726139fb565b5b90600052602060002090600302016002015490506000611b8c600960003373ffffffffffffffffffffffffffffffffffffffff1673ffffffffffffffffffffffffffffffffffffffff1681526020019081526020016000208681548110611add57611adc6139fb565b5b906000526020600020906003020160020154600760003373ffffffffffffffffffffffffffffffffffffffff1673ffffffffffffffffffffffffffffffffffffffff1681526020019081526020016000208681548110611b4057611b3f6139fb565b5b906000526020600020906003020160000160009054906101000a900473ffffffffffffffffffffffffffffffffffffffff1673f1361dc7dfb724bd29fe7ade0cdf9785f2bc20e6612242565b600181518110611b9f57611b9e6139fb565b5b6020026020010151905060007372bd489d3cf0e9cc36af6e306ff53e56d0f9efb473ffffffffffffffffffffffffffffffffffffffff166338ed173984848730426040518663ffffffff1660e01b8152600401611c00959493929190613b5b565b6000604051808303816000875af1158015611c1f573d6000803e3d6000fd5b505050506040513d6000823e3d601f19601f82011682018060405250810190611c489190613c92565b600181518110611c5b57611c5a6139fb565b5b60200260200101519050611d33600760003373ffffffffffffffffffffffffffffffffffffffff1673ffffffffffffffffffffffffffffffffffffffff1681526020019081526020016000208681548110611cb957611cb86139fb565b5b906000526020600020906003020160020154600960003373ffffffffffffffffffffffffffffffffffffffff1673ffffffffffffffffffffffffffffffffffffffff1681526020019081526020016000208881548110611d1c57611d1b6139fb565b5b906000526020600020906003020160020154612fe7565b600760003373ffffffffffffffffffffffffffffffffffffffff1673ffffffffffffffffffffffffffffffffffffffff1681526020019081526020016000208681548110611d8457611d836139fb565b5b906000526020600020906003020160020181905550505050505b8080611da990613ed9565b91505061171d565b508080611dbd90613ed9565b9150506116d0565b50565b6000600560003373ffffffffffffffffffffffffffffffffffffffff1673ffffffffffffffffffffffffffffffffffffffff1681526020019081526020016000205411611e4a576040517f08c379a0000000000000000000000000000000000000000000000000000000008152600401611e4190613f6d565b60405180910390fd5b611ed2600660003373ffffffffffffffffffffffffffffffffffffffff1673ffffffffffffffffffffffffffffffffffffffff16815260200190815260200160002054600560003373ffffffffffffffffffffffffffffffffffffffff1673ffffffffffffffffffffffffffffffffffffffff16815260200190815260200160002054613029565b600660003373ffffffffffffffffffffffffffffffffffffffff1673ffffffffffffffffffffffffffffffffffffffff1681526020019081526020016000208190555073f1361dc7dfb724bd29fe7ade0cdf9785f2bc20e673ffffffffffffffffffffffffffffffffffffffff1663a9059cbb33600560003373ffffffffffffffffffffffffffffffffffffffff1673ffffffffffffffffffffffffffffffffffffffff168152602001908152602001600020546040518363ffffffff1660e01b8152600401611fa3929190613a2a565b6020604051808303816000875af1158015611fc2573d6000803e3d6000fd5b505050506040513d601f19601f82011682018060405250810190611fe69190613a7f565b50565b6001600260003373ffffffffffffffffffffffffffffffffffffffff1673ffffffffffffffffffffffffffffffffffffffff16815260200190815260200160002060006101000a81548160ff021916908315150217905550600061080073ffffffffffffffffffffffffffffffffffffffff1663b6039895337fffffffffffffffffffffffffffffffffffffffffffffffffffffffffffffffff60006040518463ffffffff1660e01b81526004016120a39392919061414c565b6020604051808303816000875af11580156120c2573d6000803e3d6000fd5b505050506040513d601f19601f820116820180604052508101906120e69190613a7f565b905080612128576040517f08c379a000000000000000000000000000000000000000000000000000000000815260040161211f906141fc565b60405180910390fd5b61080173ffffffffffffffffffffffffffffffffffffffff16637a9841ed3360016040518363ffffffff1660e01b815260040161216692919061421c565b6020604051808303816000875af1158015612185573d6000803e3d6000fd5b505050506040513d601f19601f820116820180604052508101906121a99190613a7f565b9050806121eb576040517f08c379a00000000000000000000000000000000000000000000000000000000081526004016121e2906142be565b60405180910390fd5b50565b6000600260003373ffffffffffffffffffffffffffffffffffffffff1673ffffffffffffffffffffffffffffffffffffffff16815260200190815260200160002060009054906101000a900460ff16905090565b60606000600267ffffffffffffffff811115612261576122606130a2565b5b60405190808252806020026020018201604052801561228f5781602001602082028036833780820191505090505b50905083816000815181106122a7576122a66139fb565b5b602002602001019073ffffffffffffffffffffffffffffffffffffffff16908173ffffffffffffffffffffffffffffffffffffffff168152505082816001815181106122f6576122f56139fb565b5b602002602001019073ffffffffffffffffffffffffffffffffffffffff16908173ffffffffffffffffffffffffffffffffffffffff16815250507372bd489d3cf0e9cc36af6e306ff53e56d0f9efb473ffffffffffffffffffffffffffffffffffffffff1663d06ca61f86836040518363ffffffff1660e01b815260040161237f9291906142de565b600060405180830381865afa15801561239c573d6000803e3d6000fd5b505050506040513d6000823e3d601f19601f820116820180604052508101906123c59190613c92565b9150509392505050565b60005b600760003373ffffffffffffffffffffffffffffffffffffffff1673ffffffffffffffffffffffffffffffffffffffff16815260200190815260200160002080549050811015612b0f5760006124d36124cc600360003373ffffffffffffffffffffffffffffffffffffffff1673ffffffffffffffffffffffffffffffffffffffff16815260200190815260200160002054600760003373ffffffffffffffffffffffffffffffffffffffff1673ffffffffffffffffffffffffffffffffffffffff16815260200190815260200160002085815481106124b5576124b46139fb565b5b906000526020600020906003020160010154612ffd565b6064613013565b905060006125788273f1361dc7dfb724bd29fe7ade0cdf9785f2bc20e6600760003373ffffffffffffffffffffffffffffffffffffffff1673ffffffffffffffffffffffffffffffffffffffff1681526020019081526020016000208681548110612541576125406139fb565b5b906000526020600020906003020160000160009054906101000a900473ffffffffffffffffffffffffffffffffffffffff16612242565b60018151811061258b5761258a6139fb565b5b60200260200101519050600760003373ffffffffffffffffffffffffffffffffffffffff1673ffffffffffffffffffffffffffffffffffffffff16815260200190815260200160002083815481106125e6576125e56139fb565b5b90600052602060002090600302016002015481111561284957600860003373ffffffffffffffffffffffffffffffffffffffff1673ffffffffffffffffffffffffffffffffffffffff1681526020019081526020016000206040518060600160405280600760003373ffffffffffffffffffffffffffffffffffffffff1673ffffffffffffffffffffffffffffffffffffffff168152602001908152602001600020868154811061269a576126996139fb565b5b906000526020600020906003020160000160009054906101000a900473ffffffffffffffffffffffffffffffffffffffff1673ffffffffffffffffffffffffffffffffffffffff168152602001600760003373ffffffffffffffffffffffffffffffffffffffff1673ffffffffffffffffffffffffffffffffffffffff1681526020019081526020016000208681548110612738576127376139fb565b5b90600052602060002090600302016001015481526020016127bb84600760003373ffffffffffffffffffffffffffffffffffffffff1673ffffffffffffffffffffffffffffffffffffffff16815260200190815260200160002088815481106127a4576127a36139fb565b5b906000526020600020906003020160020154612fe7565b815250908060018154018082558091505060019003906000526020600020906003020160009091909190915060008201518160000160006101000a81548173ffffffffffffffffffffffffffffffffffffffff021916908373ffffffffffffffffffffffffffffffffffffffff16021790555060208201518160010155604082015181600201555050612afa565b600760003373ffffffffffffffffffffffffffffffffffffffff1673ffffffffffffffffffffffffffffffffffffffff168152602001908152602001600020838154811061289a576128996139fb565b5b906000526020600020906003020160020154811015612af957600960003373ffffffffffffffffffffffffffffffffffffffff1673ffffffffffffffffffffffffffffffffffffffff1681526020019081526020016000206040518060600160405280600760003373ffffffffffffffffffffffffffffffffffffffff1673ffffffffffffffffffffffffffffffffffffffff168152602001908152602001600020868154811061294e5761294d6139fb565b5b906000526020600020906003020160000160009054906101000a900473ffffffffffffffffffffffffffffffffffffffff1673ffffffffffffffffffffffffffffffffffffffff168152602001600760003373ffffffffffffffffffffffffffffffffffffffff1673ffffffffffffffffffffffffffffffffffffffff16815260200190815260200160002086815481106129ec576129eb6139fb565b5b9060005260206000209060030201600101548152602001612a6f600760003373ffffffffffffffffffffffffffffffffffffffff1673ffffffffffffffffffffffffffffffffffffffff1681526020019081526020016000208781548110612a5757612a566139fb565b5b90600052602060002090600302016002015485612fe7565b815250908060018154018082558091505060019003906000526020600020906003020160009091909190915060008201518160000160006101000a81548173ffffffffffffffffffffffffffffffffffffffff021916908373ffffffffffffffffffffffffffffffffffffffff160217905550602082015181600101556040820151816002015550505b5b50508080612b0790613ed9565b9150506123d2565b50565b6000600460003373ffffffffffffffffffffffffffffffffffffffff1673ffffffffffffffffffffffffffffffffffffffff16815260200190815260200160002054905090565b6060600960003373ffffffffffffffffffffffffffffffffffffffff1673ffffffffffffffffffffffffffffffffffffffff168152602001908152602001600020805480602002602001604051908101604052809291908181526020016000905b82821015612c5657838290600052602060002090600302016040518060600160405290816000820160009054906101000a900473ffffffffffffffffffffffffffffffffffffffff1673ffffffffffffffffffffffffffffffffffffffff1673ffffffffffffffffffffffffffffffffffffffff1681526020016001820154815260200160028201548152505081526020019060010190612bba565b50505050905090565b7372bd489d3cf0e9cc36af6e306ff53e56d0f9efb481565b60005b600760003373ffffffffffffffffffffffffffffffffffffffff1673ffffffffffffffffffffffffffffffffffffffff16815260200190815260200160002080549050811015612e8c576000600760003373ffffffffffffffffffffffffffffffffffffffff1673ffffffffffffffffffffffffffffffffffffffff1681526020019081526020016000208281548110612d1757612d166139fb565b5b90600052602060002090600302016002015490506000612dce82600760003373ffffffffffffffffffffffffffffffffffffffff1673ffffffffffffffffffffffffffffffffffffffff1681526020019081526020016000208581548110612d8257612d816139fb565b5b906000526020600020906003020160000160009054906101000a900473ffffffffffffffffffffffffffffffffffffffff1673f1361dc7dfb724bd29fe7ade0cdf9785f2bc20e6612242565b600181518110612de157612de06139fb565b5b60200260200101519050612e34600360003373ffffffffffffffffffffffffffffffffffffffff1673ffffffffffffffffffffffffffffffffffffffff1681526020019081526020016000205482613029565b600360003373ffffffffffffffffffffffffffffffffffffffff1673ffffffffffffffffffffffffffffffffffffffff1681526020019081526020016000208190555050508080612e8490613ed9565b915050612c7a565b50565b606061080173ffffffffffffffffffffffffffffffffffffffff1663b46a8d6133846040518363ffffffff1660e01b8152600401612ece929190613e0e565b6000604051808303816000875af1158015612eed573d6000803e3d6000fd5b505050506040513d6000823e3d601f19601f82011682018060405250810190612f169190614465565b905060005b8151811015612fe157612f8b600560003373ffffffffffffffffffffffffffffffffffffffff1673ffffffffffffffffffffffffffffffffffffffff16815260200190815260200160002054838381518110612f7a57612f796139fb565b5b602002602001015160200151613029565b600560003373ffffffffffffffffffffffffffffffffffffffff1673ffffffffffffffffffffffffffffffffffffffff168152602001908152602001600020819055508080612fd990613ed9565b915050612f1b565b50919050565b60008183612ff591906144ae565b905092915050565b6000818361300b91906144e2565b905092915050565b600081836130219190614553565b905092915050565b600081836130379190614584565b905092915050565b6000819050919050565b6130528161303f565b82525050565b600060208201905061306d6000830184613049565b92915050565b6000604051905090565b600080fd5b600080fd5b600080fd5b600080fd5b6000601f19601f8301169050919050565b7f4e487b7100000000000000000000000000000000000000000000000000000000600052604160045260246000fd5b6130da82613091565b810181811067ffffffffffffffff821117156130f9576130f86130a2565b5b80604052505050565b600061310c613073565b905061311882826130d1565b919050565b600067ffffffffffffffff821115613138576131376130a2565b5b61314182613091565b9050602081019050919050565b82818337600083830152505050565b600061317061316b8461311d565b613102565b90508281526020810184848401111561318c5761318b61308c565b5b61319784828561314e565b509392505050565b600082601f8301126131b4576131b3613087565b5b81356131c484826020860161315d565b91505092915050565b6131d68161303f565b81146131e157600080fd5b50565b6000813590506131f3816131cd565b92915050565b600080604083850312156132105761320f61307d565b5b600083013567ffffffffffffffff81111561322e5761322d613082565b5b61323a8582860161319f565b925050602061324b858286016131e4565b9150509250929050565b60008160070b9050919050565b61326b81613255565b82525050565b60006020820190506132866000830184613262565b92915050565b600081519050919050565b600082825260208201905092915050565b6000819050602082019050919050565b600073ffffffffffffffffffffffffffffffffffffffff82169050919050565b60006132e3826132b8565b9050919050565b6132f3816132d8565b82525050565b6133028161303f565b82525050565b60608201600082015161331e60008501826132ea565b50602082015161333160208501826132f9565b50604082015161334460408501826132f9565b50505050565b60006133568383613308565b60608301905092915050565b6000602082019050919050565b600061337a8261328c565b6133848185613297565b935061338f836132a8565b8060005b838110156133c05781516133a7888261334a565b97506133b283613362565b925050600181019050613393565b5085935050505092915050565b600060208201905081810360008301526133e7818461336f565b905092915050565b6133f8816132d8565b811461340357600080fd5b50565b600081359050613415816133ef565b92915050565b600080604083850312156134325761343161307d565b5b600061344085828601613406565b9250506020613451858286016131e4565b9150509250929050565b613464816132d8565b82525050565b600060208201905061347f600083018461345b565b92915050565b60008115159050919050565b61349a81613485565b82525050565b60006020820190506134b56000830184613491565b92915050565b6000806000606084860312156134d4576134d361307d565b5b60006134e2868287016131e4565b93505060206134f386828701613406565b925050604061350486828701613406565b9150509250925092565b600081519050919050565b600082825260208201905092915050565b6000819050602082019050919050565b600061354683836132f9565b60208301905092915050565b6000602082019050919050565b600061356a8261350e565b6135748185613519565b935061357f8361352a565b8060005b838110156135b0578151613597888261353a565b97506135a283613552565b925050600181019050613583565b5085935050505092915050565b600060208201905081810360008301526135d7818461355f565b905092915050565b6000819050919050565b60006136046135ff6135fa846132b8565b6135df565b6132b8565b9050919050565b6000613616826135e9565b9050919050565b60006136288261360b565b9050919050565b6136388161361d565b82525050565b6000602082019050613653600083018461362f565b92915050565b60006020828403121561366f5761366e61307d565b5b600082013567ffffffffffffffff81111561368d5761368c613082565b5b6136998482850161319f565b91505092915050565b600081519050919050565b600082825260208201905092915050565b6000819050602082019050919050565b600081519050919050565b600082825260208201905092915050565b60005b838110156137085780820151818401526020810190506136ed565b60008484015250505050565b600061371f826136ce565b61372981856136d9565b93506137398185602086016136ea565b61374281613091565b840191505092915050565b6000604083016000830151848203600086015261376a8282613714565b915050602083015161377f60208601826132f9565b508091505092915050565b6000613796838361374d565b905092915050565b6000602082019050919050565b60006137b6826136a2565b6137c081856136ad565b9350836020820285016137d2856136be565b8060005b8581101561380e57848403895281516137ef858261378a565b94506137fa8361379e565b925060208a019950506001810190506137d6565b50829750879550505050505092915050565b6000602082019050818103600083015261383a81846137ab565b905092915050565b600082825260208201905092915050565b7f446f65736e2774206861766520656e6f75676820616d6f756e74210000000000600082015250565b6000613889601b83613842565b915061389482613853565b602082019050919050565b600060208201905081810360008301526138b88161387c565b9050919050565b60006138ca826136ce565b6138d48185613842565b93506138e48185602086016136ea565b6138ed81613091565b840191505092915050565b600060608201905061390d600083018661345b565b818103602083015261391f81856138bf565b905061392e6040830184613049565b949350505050565b61393f81613255565b811461394a57600080fd5b50565b60008151905061395c81613936565b92915050565b6000602082840312156139785761397761307d565b5b60006139868482850161394d565b91505092915050565b7f53656e64657220646f65736e2774206861766520726577617264732100000000600082015250565b60006139c5601c83613842565b91506139d08261398f565b602082019050919050565b600060208201905081810360008301526139f4816139b8565b9050919050565b7f4e487b7100000000000000000000000000000000000000000000000000000000600052603260045260246000fd5b6000604082019050613a3f600083018561345b565b613a4c6020830184613049565b9392505050565b613a5c81613485565b8114613a6757600080fd5b50565b600081519050613a7981613a53565b92915050565b600060208284031215613a9557613a9461307d565b5b6000613aa384828501613a6a565b91505092915050565b600081519050919050565b600082825260208201905092915050565b6000819050602082019050919050565b6000613ae483836132ea565b60208301905092915050565b6000602082019050919050565b6000613b0882613aac565b613b128185613ab7565b9350613b1d83613ac8565b8060005b83811015613b4e578151613b358882613ad8565b9750613b4083613af0565b925050600181019050613b21565b5085935050505092915050565b600060a082019050613b706000830188613049565b613b7d6020830187613049565b8181036040830152613b8f8186613afd565b9050613b9e606083018561345b565b613bab6080830184613049565b9695505050505050565b600067ffffffffffffffff821115613bd057613bcf6130a2565b5b602082029050602081019050919050565b600080fd5b600081519050613bf5816131cd565b92915050565b6000613c0e613c0984613bb5565b613102565b90508083825260208201905060208402830185811115613c3157613c30613be1565b5b835b81811015613c5a5780613c468882613be6565b845260208401935050602081019050613c33565b5050509392505050565b600082601f830112613c7957613c78613087565b5b8151613c89848260208601613bfb565b91505092915050565b600060208284031215613ca857613ca761307d565b5b600082015167ffffffffffffffff811115613cc657613cc5613082565b5b613cd284828501613c64565b91505092915050565b7f65766d6f73000000000000000000000000000000000000000000000000000000600082015250565b6000613d11600583613842565b9150613d1c82613cdb565b602082019050919050565b6000604082019050613d3c600083018461345b565b8181036020830152613d4d81613d04565b905092915050565b6000613d68613d638461311d565b613102565b905082815260208101848484011115613d8457613d8361308c565b5b613d8f8482856136ea565b509392505050565b600082601f830112613dac57613dab613087565b5b8151613dbc848260208601613d55565b91505092915050565b600060208284031215613ddb57613dda61307d565b5b600082015167ffffffffffffffff811115613df957613df8613082565b5b613e0584828501613d97565b91505092915050565b6000604082019050613e23600083018561345b565b8181036020830152613e3581846138bf565b90509392505050565b7f576974686472617765722043616e2774204265204368616e6765642100000000600082015250565b6000613e74601c83613842565b9150613e7f82613e3e565b602082019050919050565b60006020820190508181036000830152613ea381613e67565b9050919050565b7f4e487b7100000000000000000000000000000000000000000000000000000000600052601160045260246000fd5b6000613ee48261303f565b91507fffffffffffffffffffffffffffffffffffffffffffffffffffffffffffffffff8203613f1657613f15613eaa565b5b600182019050919050565b7f446f65736e277420686176652072657761726473210000000000000000000000600082015250565b6000613f57601583613842565b9150613f6282613f21565b602082019050919050565b60006020820190508181036000830152613f8681613f4a565b9050919050565b600081549050919050565b600082825260208201905092915050565b60008190508160005260206000209050919050565b7f4e487b7100000000000000000000000000000000000000000000000000000000600052602260045260246000fd5b6000600282049050600182168061400557607f821691505b60208210810361401857614017613fbe565b5b50919050565b60008190508160005260206000209050919050565b6000815461404081613fed565b61404a81866136d9565b94506001821660008114614065576001811461407b576140ae565b60ff1983168652811515602002860193506140ae565b6140848561401e565b60005b838110156140a657815481890152600182019150602081019050614087565b808801955050505b50505092915050565b60006140c38383614033565b905092915050565b6000600182019050919050565b60006140e382613f8d565b6140ed8185613f98565b9350836020820285016140ff85613fa9565b8060005b8581101561413a5784840389528161411b85826140b7565b9450614126836140cb565b925060208a01995050600181019050614103565b50829750879550505050505092915050565b6000606082019050614161600083018661345b565b61416e6020830185613049565b818103604083015261418081846140d8565b9050949350505050565b7f4661696c656420746f20617070726f76652064656c6567617465206d6574686f60008201527f6400000000000000000000000000000000000000000000000000000000000000602082015250565b60006141e6602183613842565b91506141f18261418a565b604082019050919050565b60006020820190508181036000830152614215816141d9565b9050919050565b6000604082019050614231600083018561345b565b818103602083015261424381846140d8565b90509392505050565b7f4661696c656420746f20617070726f76652077697468647261772064656c656760008201527f61746f722072657761726473206d6574686f6400000000000000000000000000602082015250565b60006142a8603383613842565b91506142b38261424c565b604082019050919050565b600060208201905081810360008301526142d78161429b565b9050919050565b60006040820190506142f36000830185613049565b81810360208301526143058184613afd565b90509392505050565b600067ffffffffffffffff821115614329576143286130a2565b5b602082029050602081019050919050565b600080fd5b600080fd5b60006040828403121561435a5761435961433a565b5b6143646040613102565b9050600082015167ffffffffffffffff8111156143845761438361433f565b5b61439084828501613d97565b60008301525060206143a484828501613be6565b60208301525092915050565b60006143c36143be8461430e565b613102565b905080838252602082019050602084028301858111156143e6576143e5613be1565b5b835b8181101561442d57805167ffffffffffffffff81111561440b5761440a613087565b5b8086016144188982614344565b855260208501945050506020810190506143e8565b5050509392505050565b600082601f83011261444c5761444b613087565b5b815161445c8482602086016143b0565b91505092915050565b60006020828403121561447b5761447a61307d565b5b600082015167ffffffffffffffff81111561449957614498613082565b5b6144a584828501614437565b91505092915050565b60006144b98261303f565b91506144c48361303f565b92508282039050818111156144dc576144db613eaa565b5b92915050565b60006144ed8261303f565b91506144f88361303f565b92508282026145068161303f565b9150828204841483151761451d5761451c613eaa565b5b5092915050565b7f4e487b7100000000000000000000000000000000000000000000000000000000600052601260045260246000fd5b600061455e8261303f565b91506145698361303f565b92508261457957614578614524565b5b828204905092915050565b600061458f8261303f565b915061459a8361303f565b92508282019050808211156145b2576145b1613eaa565b5b9291505056fea2646970667358221220ce6117ad2899aecf66df2759747f50c208d79875bb1c58585eeb470f179cba6d64736f6c634300081200332f636f736d6f732e646973747269627574696f6e2e763162657461312e4d73675365745769746864726177416464726573732f636f736d6f732e7374616b696e672e763162657461312e4d7367556e64656c65676174652f636f736d6f732e646973747269627574696f6e2e763162657461312e4d7367576974686472617744656c656761746f725265776172642f636f736d6f732e7374616b696e672e763162657461312e4d736744656c6567617465",
  "linkReferences": {},
  "deployedLinkReferences": {}
}