{
  "_format": "hh-sol-artifact-1",
  "contractName": "Portfolio",
  "sourceName": "contracts/Portfolio.sol",
  "abi": [
    {
      "anonymous": false,
      "inputs": [
        {
          "indexed": false,
          "internalType": "uint256",
          "name": "",
          "type": "uint256"
        },
        {
          "indexed": false,
          "internalType": "address",
          "name": "",
          "type": "address"
        }
      ],
      "name": "TestEvent",
      "type": "event"
    },
    {
      "inputs": [],
      "name": "approveRequiredMethods",
      "outputs": [],
      "stateMutability": "nonpayable",
      "type": "function"
    },
    {
      "inputs": [],
      "name": "balancePortfolio",
      "outputs": [],
      "stateMutability": "nonpayable",
      "type": "function"
    },
    {
      "inputs": [],
      "name": "buyToken",
      "outputs": [],
      "stateMutability": "nonpayable",
      "type": "function"
    },
    {
      "inputs": [],
      "name": "calculatePortfolio",
      "outputs": [],
      "stateMutability": "nonpayable",
      "type": "function"
    },
    {
      "inputs": [],
      "name": "checkUserRewards",
      "outputs": [
        {
          "internalType": "uint256",
          "name": "",
          "type": "uint256"
        }
      ],
      "stateMutability": "view",
      "type": "function"
    },
    {
      "inputs": [
        {
          "internalType": "uint256",
          "name": "amountIn",
          "type": "uint256"
        },
        {
          "internalType": "address",
          "name": "tokenA",
          "type": "address"
        },
        {
          "internalType": "address",
          "name": "tokenB",
          "type": "address"
        }
      ],
      "name": "getAmount",
      "outputs": [
        {
          "internalType": "uint256[]",
          "name": "amounts",
          "type": "uint256[]"
        }
      ],
      "stateMutability": "view",
      "type": "function"
    },
    {
      "inputs": [
        {
          "internalType": "address",
          "name": "_user",
          "type": "address"
        }
      ],
      "name": "getUserDetails",
      "outputs": [
        {
          "components": [
            {
              "internalType": "address",
              "name": "tokenAddress",
              "type": "address"
            },
            {
              "internalType": "uint256",
              "name": "tokenPercent",
              "type": "uint256"
            },
            {
              "internalType": "uint256",
              "name": "tokenAmount",
              "type": "uint256"
            }
          ],
          "internalType": "struct Portfolio.TokenDetails[]",
          "name": "",
          "type": "tuple[]"
        }
      ],
      "stateMutability": "view",
      "type": "function"
    },
    {
      "inputs": [],
      "name": "router",
      "outputs": [
        {
          "internalType": "contract IUniswapV2Router01",
          "name": "",
          "type": "address"
        }
      ],
      "stateMutability": "view",
      "type": "function"
    },
    {
      "inputs": [],
      "name": "sellToken",
      "outputs": [],
      "stateMutability": "nonpayable",
      "type": "function"
    },
    {
      "inputs": [],
      "name": "setWithdraw",
      "outputs": [],
      "stateMutability": "nonpayable",
      "type": "function"
    },
    {
      "inputs": [
        {
          "internalType": "string",
          "name": "_validatorAddr",
          "type": "string"
        },
        {
          "internalType": "uint256",
          "name": "_amount",
          "type": "uint256"
        }
      ],
      "name": "stake",
      "outputs": [
        {
          "internalType": "int64",
          "name": "completionTime",
          "type": "int64"
        }
      ],
      "stateMutability": "nonpayable",
      "type": "function"
    },
    {
      "inputs": [
        {
          "internalType": "address",
          "name": "",
          "type": "address"
        },
        {
          "internalType": "uint256",
          "name": "",
          "type": "uint256"
        }
      ],
      "name": "tokenAmountDecrease",
      "outputs": [
        {
          "internalType": "address",
          "name": "tokenAddress",
          "type": "address"
        },
        {
          "internalType": "uint256",
          "name": "tokenPercent",
          "type": "uint256"
        },
        {
          "internalType": "uint256",
          "name": "tokenAmount",
          "type": "uint256"
        }
      ],
      "stateMutability": "view",
      "type": "function"
    },
    {
      "inputs": [
        {
          "internalType": "address",
          "name": "",
          "type": "address"
        },
        {
          "internalType": "uint256",
          "name": "",
          "type": "uint256"
        }
      ],
      "name": "tokenAmountIncrease",
      "outputs": [
        {
          "internalType": "address",
          "name": "tokenAddress",
          "type": "address"
        },
        {
          "internalType": "uint256",
          "name": "tokenPercent",
          "type": "uint256"
        },
        {
          "internalType": "uint256",
          "name": "tokenAmount",
          "type": "uint256"
        }
      ],
      "stateMutability": "view",
      "type": "function"
    },
    {
      "inputs": [
        {
          "internalType": "address",
          "name": "_tokenAddress",
          "type": "address"
        },
        {
          "internalType": "uint256",
          "name": "_tokenPercent",
          "type": "uint256"
        }
      ],
      "name": "tokenDestribution",
      "outputs": [],
      "stateMutability": "nonpayable",
      "type": "function"
    },
    {
      "inputs": [
        {
          "internalType": "address",
          "name": "",
          "type": "address"
        },
        {
          "internalType": "uint256",
          "name": "",
          "type": "uint256"
        }
      ],
      "name": "userDetail",
      "outputs": [
        {
          "internalType": "address",
          "name": "tokenAddress",
          "type": "address"
        },
        {
          "internalType": "uint256",
          "name": "tokenPercent",
          "type": "uint256"
        },
        {
          "internalType": "uint256",
          "name": "tokenAmount",
          "type": "uint256"
        }
      ],
      "stateMutability": "view",
      "type": "function"
    },
    {
      "inputs": [
        {
          "internalType": "address",
          "name": "",
          "type": "address"
        }
      ],
      "name": "userRewards",
      "outputs": [
        {
          "internalType": "uint256",
          "name": "",
          "type": "uint256"
        }
      ],
      "stateMutability": "view",
      "type": "function"
    },
    {
      "inputs": [
        {
          "internalType": "address",
          "name": "",
          "type": "address"
        }
      ],
      "name": "userTotalAmount",
      "outputs": [
        {
          "internalType": "uint256",
          "name": "",
          "type": "uint256"
        }
      ],
      "stateMutability": "view",
      "type": "function"
    },
    {
      "inputs": [
        {
          "internalType": "string",
          "name": "_validatorAddr",
          "type": "string"
        }
      ],
      "name": "withdrawRewards",
      "outputs": [
        {
          "components": [
            {
              "internalType": "string",
              "name": "denom",
              "type": "string"
            },
            {
              "internalType": "uint256",
              "name": "amount",
              "type": "uint256"
            }
          ],
          "internalType": "struct Coin[]",
          "name": "amount",
          "type": "tuple[]"
        }
      ],
      "stateMutability": "nonpayable",
      "type": "function"
    }
  ],
  "bytecode": "0x6080604052604051806040016040528060405180606001604052806023815260200162004445602391398152602001604051806060016040528060258152602001620043e96025913981525060009060026200005d929190620000cc565b506040518060400160405280604051806060016040528060328152602001620043b76032913981526020016040518060600160405280603781526020016200440e603791398152506001906002620000b7929190620000cc565b50348015620000c557600080fd5b506200051a565b82805482825590600052602060002090810192821562000119579160200282015b828111156200011857825182908162000107919062000433565b5091602001919060010190620000ed565b5b5090506200012891906200012c565b5090565b5b8082111562000150576000818162000146919062000154565b506001016200012d565b5090565b508054620001629062000222565b6000825580601f1062000176575062000197565b601f0160209004906000526020600020908101906200019691906200019a565b5b50565b5b80821115620001b55760008160009055506001016200019b565b5090565b600081519050919050565b7f4e487b7100000000000000000000000000000000000000000000000000000000600052604160045260246000fd5b7f4e487b7100000000000000000000000000000000000000000000000000000000600052602260045260246000fd5b600060028204905060018216806200023b57607f821691505b602082108103620002515762000250620001f3565b5b50919050565b60008190508160005260206000209050919050565b60006020601f8301049050919050565b600082821b905092915050565b600060088302620002bb7fffffffffffffffffffffffffffffffffffffffffffffffffffffffffffffffff826200027c565b620002c786836200027c565b95508019841693508086168417925050509392505050565b6000819050919050565b6000819050919050565b6000620003146200030e6200030884620002df565b620002e9565b620002df565b9050919050565b6000819050919050565b6200033083620002f3565b620003486200033f826200031b565b84845462000289565b825550505050565b600090565b6200035f62000350565b6200036c81848462000325565b505050565b5b8181101562000394576200038860008262000355565b60018101905062000372565b5050565b601f821115620003e357620003ad8162000257565b620003b8846200026c565b81016020851015620003c8578190505b620003e0620003d7856200026c565b83018262000371565b50505b505050565b600082821c905092915050565b60006200040860001984600802620003e8565b1980831691505092915050565b6000620004238383620003f5565b9150826002028217905092915050565b6200043e82620001b9565b67ffffffffffffffff8111156200045a5762000459620001c4565b5b62000466825462000222565b6200047382828562000398565b600060209050601f831160018114620004ab576000841562000496578287015190505b620004a2858262000415565b86555062000512565b601f198416620004bb8662000257565b60005b82811015620004e557848901518255600182019150602085019450602081019050620004be565b8683101562000505578489015162000501601f891682620003f5565b8355505b6001600288020188555050505b505050505050565b613e8d806200052a6000396000f3fe608060405234801561001057600080fd5b50600436106101165760003560e01c80639769f0b0116100a2578063dfa8845211610071578063dfa88452146102d3578063e38bd3c914610303578063f887ea401461030d578063f89207f81461032b578063fcdf9c061461033557610116565b80639769f0b014610285578063a48217191461028f578063c6e79b9114610299578063cc3d967b146102a357610116565b806362988244116100e957806362988244146101b75780637a22d9d3146101e95780637dbfb5dc146101f35780638be25384146102235780639494c8ae1461025557610116565b80630660f1e81461011b578063454c60c11461014b5780634f17c4f81461017d5780635ae935c21461019b575b600080fd5b610135600480360381019061013091906129e0565b610365565b6040516101429190612a26565b60405180910390f35b61016560048036038101906101609190612a6d565b61037d565b60405161017493929190612abc565b60405180910390f35b6101856103e4565b6040516101929190612a26565b60405180910390f35b6101b560048036038101906101b09190612a6d565b61042b565b005b6101d160048036038101906101cc9190612a6d565b6108a3565b6040516101e093929190612abc565b60405180910390f35b6101f161090a565b005b61020d600480360381019061020891906129e0565b610a53565b60405161021a9190612a26565b60405180910390f35b61023d60048036038101906102389190612a6d565b610a6b565b60405161024c93929190612abc565b60405180910390f35b61026f600480360381019061026a9190612c39565b610ad2565b60405161027c9190612cb1565b60405180910390f35b61028d610cda565b005b6102976113bb565b005b6102a1611a51565b005b6102bd60048036038101906102b891906129e0565b611bfe565b6040516102ca9190612ddb565b60405180910390f35b6102ed60048036038101906102e89190612dfd565b611d06565b6040516102fa9190612eff565b60405180910390f35b61030b611e93565b005b6103156125da565b6040516103229190612f80565b60405180910390f35b6103336125f2565b005b61034f600480360381019061034a9190612f9b565b61280a565b60405161035c9190613162565b60405180910390f35b60026020528060005260406000206000915090505481565b6006602052816000526040600020818154811061039957600080fd5b9060005260206000209060030201600091509150508060000160009054906101000a900473ffffffffffffffffffffffffffffffffffffffff16908060010154908060020154905083565b6000600260003373ffffffffffffffffffffffffffffffffffffffff1673ffffffffffffffffffffffffffffffffffffffff16815260200190815260200160002054905090565b6000600260003373ffffffffffffffffffffffffffffffffffffffff1673ffffffffffffffffffffffffffffffffffffffff16815260200190815260200160002054116104ad576040517f08c379a00000000000000000000000000000000000000000000000000000000081526004016104a4906131e1565b60405180910390fd5b60006105026104fb600260003373ffffffffffffffffffffffffffffffffffffffff1673ffffffffffffffffffffffffffffffffffffffff168152602001908152602001600020548461292c565b6064612942565b905060006105258273f1361dc7dfb724bd29fe7ade0cdf9785f2bc20e686611d06565b60018151811061053857610537613201565b5b602002602001015190506000600267ffffffffffffffff81111561055f5761055e612b0e565b5b60405190808252806020026020018201604052801561058d5781602001602082028036833780820191505090505b50905073f1361dc7dfb724bd29fe7ade0cdf9785f2bc20e6816000815181106105b9576105b8613201565b5b602002602001019073ffffffffffffffffffffffffffffffffffffffff16908173ffffffffffffffffffffffffffffffffffffffff1681525050848160018151811061060857610607613201565b5b602002602001019073ffffffffffffffffffffffffffffffffffffffff16908173ffffffffffffffffffffffffffffffffffffffff168152505073f1361dc7dfb724bd29fe7ade0cdf9785f2bc20e673ffffffffffffffffffffffffffffffffffffffff1663095ea7b37372bd489d3cf0e9cc36af6e306ff53e56d0f9efb4856040518363ffffffff1660e01b81526004016106a5929190613230565b6020604051808303816000875af11580156106c4573d6000803e3d6000fd5b505050506040513d601f19601f820116820180604052508101906106e89190613291565b5060007372bd489d3cf0e9cc36af6e306ff53e56d0f9efb473ffffffffffffffffffffffffffffffffffffffff166338ed173985858533426040518663ffffffff1660e01b815260040161074095949392919061336d565b6000604051808303816000875af115801561075f573d6000803e3d6000fd5b505050506040513d6000823e3d601f19601f8201168201806040525081019061078891906134a4565b60018151811061079b5761079a613201565b5b60200260200101519050600360003373ffffffffffffffffffffffffffffffffffffffff1673ffffffffffffffffffffffffffffffffffffffff16815260200190815260200160002060405180606001604052808873ffffffffffffffffffffffffffffffffffffffff16815260200187815260200183815250908060018154018082558091505060019003906000526020600020906003020160009091909190915060008201518160000160006101000a81548173ffffffffffffffffffffffffffffffffffffffff021916908373ffffffffffffffffffffffffffffffffffffffff16021790555060208201518160010155604082015181600201555050505050505050565b600560205281600052604060002081815481106108bf57600080fd5b9060005260206000209060030201600091509150508060000160009054906101000a900473ffffffffffffffffffffffffffffffffffffffff16908060010154908060020154905083565b600061080173ffffffffffffffffffffffffffffffffffffffff16635a9d9a963361040073ffffffffffffffffffffffffffffffffffffffff1663f958a98c306040518263ffffffff1660e01b81526004016109669190613539565b6000604051808303816000875af1158015610985573d6000803e3d6000fd5b505050506040513d6000823e3d601f19601f820116820180604052508101906109ae91906135d7565b6040518363ffffffff1660e01b81526004016109cb929190613659565b6020604051808303816000875af11580156109ea573d6000803e3d6000fd5b505050506040513d601f19601f82011682018060405250810190610a0e9190613291565b905080610a50576040517f08c379a0000000000000000000000000000000000000000000000000000000008152600401610a47906136d5565b60405180910390fd5b50565b60046020528060005260406000206000915090505481565b60036020528160005260406000208181548110610a8757600080fd5b9060005260206000209060030201600091509150508060000160009054906101000a900473ffffffffffffffffffffffffffffffffffffffff16908060010154908060020154905083565b60007f9457b0abc6a87108b750271d78f46ad30369fbeb6a7454888743813252fca3fc600460003373ffffffffffffffffffffffffffffffffffffffff1673ffffffffffffffffffffffffffffffffffffffff1681526020019081526020016000205433604051610b449291906136f5565b60405180910390a1610b95600460003373ffffffffffffffffffffffffffffffffffffffff1673ffffffffffffffffffffffffffffffffffffffff1681526020019081526020016000205483612958565b600460003373ffffffffffffffffffffffffffffffffffffffff1673ffffffffffffffffffffffffffffffffffffffff168152602001908152602001600020819055507f9457b0abc6a87108b750271d78f46ad30369fbeb6a7454888743813252fca3fc600460003373ffffffffffffffffffffffffffffffffffffffff1673ffffffffffffffffffffffffffffffffffffffff1681526020019081526020016000205433604051610c489291906136f5565b60405180910390a161080073ffffffffffffffffffffffffffffffffffffffff166353266bbb3385856040518463ffffffff1660e01b8152600401610c8f9392919061371e565b6020604051808303816000875af1158015610cae573d6000803e3d6000fd5b505050506040513d601f19601f82011682018060405250810190610cd29190613788565b905092915050565b60005b600560003373ffffffffffffffffffffffffffffffffffffffff1673ffffffffffffffffffffffffffffffffffffffff168152602001908152602001600020805490508110156113b85760005b600360003373ffffffffffffffffffffffffffffffffffffffff1673ffffffffffffffffffffffffffffffffffffffff168152602001908152602001600020805490508110156113a457600360003373ffffffffffffffffffffffffffffffffffffffff1673ffffffffffffffffffffffffffffffffffffffff1681526020019081526020016000208181548110610dc557610dc4613201565b5b906000526020600020906003020160000160009054906101000a900473ffffffffffffffffffffffffffffffffffffffff1673ffffffffffffffffffffffffffffffffffffffff16600560003373ffffffffffffffffffffffffffffffffffffffff1673ffffffffffffffffffffffffffffffffffffffff1681526020019081526020016000208381548110610e5e57610e5d613201565b5b906000526020600020906003020160000160009054906101000a900473ffffffffffffffffffffffffffffffffffffffff1673ffffffffffffffffffffffffffffffffffffffff1603611391576000600267ffffffffffffffff811115610ec857610ec7612b0e565b5b604051908082528060200260200182016040528015610ef65781602001602082028036833780820191505090505b50905073f1361dc7dfb724bd29fe7ade0cdf9785f2bc20e681600081518110610f2257610f21613201565b5b602002602001019073ffffffffffffffffffffffffffffffffffffffff16908173ffffffffffffffffffffffffffffffffffffffff1681525050600360003373ffffffffffffffffffffffffffffffffffffffff1673ffffffffffffffffffffffffffffffffffffffff1681526020019081526020016000208281548110610fad57610fac613201565b5b906000526020600020906003020160000160009054906101000a900473ffffffffffffffffffffffffffffffffffffffff1681600181518110610ff357610ff2613201565b5b602002602001019073ffffffffffffffffffffffffffffffffffffffff16908173ffffffffffffffffffffffffffffffffffffffff16815250506000611132600560003373ffffffffffffffffffffffffffffffffffffffff1673ffffffffffffffffffffffffffffffffffffffff168152602001908152602001600020858154811061108357611082613201565b5b906000526020600020906003020160020154600360003373ffffffffffffffffffffffffffffffffffffffff1673ffffffffffffffffffffffffffffffffffffffff16815260200190815260200160002085815481106110e6576110e5613201565b5b906000526020600020906003020160000160009054906101000a900473ffffffffffffffffffffffffffffffffffffffff1673f1361dc7dfb724bd29fe7ade0cdf9785f2bc20e6611d06565b60018151811061114557611144613201565b5b6020026020010151905073f1361dc7dfb724bd29fe7ade0cdf9785f2bc20e673ffffffffffffffffffffffffffffffffffffffff1663095ea7b37372bd489d3cf0e9cc36af6e306ff53e56d0f9efb4836040518363ffffffff1660e01b81526004016111b2929190613230565b6020604051808303816000875af11580156111d1573d6000803e3d6000fd5b505050506040513d601f19601f820116820180604052508101906111f59190613291565b5060007372bd489d3cf0e9cc36af6e306ff53e56d0f9efb473ffffffffffffffffffffffffffffffffffffffff166338ed173983600560003373ffffffffffffffffffffffffffffffffffffffff1673ffffffffffffffffffffffffffffffffffffffff168152602001908152602001600020888154811061127a57611279613201565b5b9060005260206000209060030201600201548633426040518663ffffffff1660e01b81526004016112af95949392919061336d565b6000604051808303816000875af11580156112ce573d6000803e3d6000fd5b505050506040513d6000823e3d601f19601f820116820180604052508101906112f791906134a4565b60018151811061130a57611309613201565b5b6020026020010151905080600360003373ffffffffffffffffffffffffffffffffffffffff1673ffffffffffffffffffffffffffffffffffffffff168152602001908152602001600020858154811061136657611365613201565b5b9060005260206000209060030201600201600082825461138691906137e4565b925050819055505050505b808061139c90613818565b915050610d2a565b5080806113b090613818565b915050610cdd565b50565b60005b600660003373ffffffffffffffffffffffffffffffffffffffff1673ffffffffffffffffffffffffffffffffffffffff16815260200190815260200160002080549050811015611a4e5760005b600360003373ffffffffffffffffffffffffffffffffffffffff1673ffffffffffffffffffffffffffffffffffffffff16815260200190815260200160002080549050811015611a3a57600360003373ffffffffffffffffffffffffffffffffffffffff1673ffffffffffffffffffffffffffffffffffffffff16815260200190815260200160002081815481106114a6576114a5613201565b5b906000526020600020906003020160000160009054906101000a900473ffffffffffffffffffffffffffffffffffffffff1673ffffffffffffffffffffffffffffffffffffffff16600660003373ffffffffffffffffffffffffffffffffffffffff1673ffffffffffffffffffffffffffffffffffffffff168152602001908152602001600020838154811061153f5761153e613201565b5b906000526020600020906003020160000160009054906101000a900473ffffffffffffffffffffffffffffffffffffffff1673ffffffffffffffffffffffffffffffffffffffff1603611a27576000600267ffffffffffffffff8111156115a9576115a8612b0e565b5b6040519080825280602002602001820160405280156115d75781602001602082028036833780820191505090505b509050600360003373ffffffffffffffffffffffffffffffffffffffff1673ffffffffffffffffffffffffffffffffffffffff168152602001908152602001600020828154811061162b5761162a613201565b5b906000526020600020906003020160000160009054906101000a900473ffffffffffffffffffffffffffffffffffffffff168160008151811061167157611670613201565b5b602002602001019073ffffffffffffffffffffffffffffffffffffffff16908173ffffffffffffffffffffffffffffffffffffffff168152505073f1361dc7dfb724bd29fe7ade0cdf9785f2bc20e6816001815181106116d4576116d3613201565b5b602002602001019073ffffffffffffffffffffffffffffffffffffffff16908173ffffffffffffffffffffffffffffffffffffffff168152505060007372bd489d3cf0e9cc36af6e306ff53e56d0f9efb473ffffffffffffffffffffffffffffffffffffffff166338ed1739600660003373ffffffffffffffffffffffffffffffffffffffff1673ffffffffffffffffffffffffffffffffffffffff168152602001908152602001600020868154811061179157611790613201565b5b9060005260206000209060030201600201546118a6600660003373ffffffffffffffffffffffffffffffffffffffff1673ffffffffffffffffffffffffffffffffffffffff16815260200190815260200160002088815481106117f7576117f6613201565b5b906000526020600020906003020160020154600360003373ffffffffffffffffffffffffffffffffffffffff1673ffffffffffffffffffffffffffffffffffffffff168152602001908152602001600020888154811061185a57611859613201565b5b906000526020600020906003020160000160009054906101000a900473ffffffffffffffffffffffffffffffffffffffff1673f1361dc7dfb724bd29fe7ade0cdf9785f2bc20e6611d06565b6001815181106118b9576118b8613201565b5b60200260200101518530426040518663ffffffff1660e01b81526004016118e495949392919061336d565b6000604051808303816000875af1158015611903573d6000803e3d6000fd5b505050506040513d6000823e3d601f19601f8201168201806040525081019061192c91906134a4565b60018151811061193f5761193e613201565b5b60200260200101519050600660003373ffffffffffffffffffffffffffffffffffffffff1673ffffffffffffffffffffffffffffffffffffffff168152602001908152602001600020848154811061199a57611999613201565b5b906000526020600020906003020160020154600360003373ffffffffffffffffffffffffffffffffffffffff1673ffffffffffffffffffffffffffffffffffffffff16815260200190815260200160002084815481106119fd576119fc613201565b5b90600052602060002090600302016002016000828254611a1d9190613860565b9250508190555050505b8080611a3290613818565b91505061140b565b508080611a4690613818565b9150506113be565b50565b600061080073ffffffffffffffffffffffffffffffffffffffff1663b6039895337fffffffffffffffffffffffffffffffffffffffffffffffffffffffffffffffff60006040518463ffffffff1660e01b8152600401611ab393929190613a53565b6020604051808303816000875af1158015611ad2573d6000803e3d6000fd5b505050506040513d601f19601f82011682018060405250810190611af69190613291565b905080611b38576040517f08c379a0000000000000000000000000000000000000000000000000000000008152600401611b2f90613b03565b60405180910390fd5b61080173ffffffffffffffffffffffffffffffffffffffff16637a9841ed3360016040518363ffffffff1660e01b8152600401611b76929190613b23565b6020604051808303816000875af1158015611b95573d6000803e3d6000fd5b505050506040513d601f19601f82011682018060405250810190611bb99190613291565b905080611bfb576040517f08c379a0000000000000000000000000000000000000000000000000000000008152600401611bf290613bc5565b60405180910390fd5b50565b6060600360008373ffffffffffffffffffffffffffffffffffffffff1673ffffffffffffffffffffffffffffffffffffffff168152602001908152602001600020805480602002602001604051908101604052809291908181526020016000905b82821015611cfb57838290600052602060002090600302016040518060600160405290816000820160009054906101000a900473ffffffffffffffffffffffffffffffffffffffff1673ffffffffffffffffffffffffffffffffffffffff1673ffffffffffffffffffffffffffffffffffffffff1681526020016001820154815260200160028201548152505081526020019060010190611c5f565b505050509050919050565b60606000600267ffffffffffffffff811115611d2557611d24612b0e565b5b604051908082528060200260200182016040528015611d535781602001602082028036833780820191505090505b5090508381600081518110611d6b57611d6a613201565b5b602002602001019073ffffffffffffffffffffffffffffffffffffffff16908173ffffffffffffffffffffffffffffffffffffffff16815250508281600181518110611dba57611db9613201565b5b602002602001019073ffffffffffffffffffffffffffffffffffffffff16908173ffffffffffffffffffffffffffffffffffffffff16815250507372bd489d3cf0e9cc36af6e306ff53e56d0f9efb473ffffffffffffffffffffffffffffffffffffffff1663d06ca61f86836040518363ffffffff1660e01b8152600401611e43929190613be5565b600060405180830381865afa158015611e60573d6000803e3d6000fd5b505050506040513d6000823e3d601f19601f82011682018060405250810190611e8991906134a4565b9150509392505050565b60005b600360003373ffffffffffffffffffffffffffffffffffffffff1673ffffffffffffffffffffffffffffffffffffffff168152602001908152602001600020805490508110156125d7576000611f97611f90600460003373ffffffffffffffffffffffffffffffffffffffff1673ffffffffffffffffffffffffffffffffffffffff16815260200190815260200160002054600360003373ffffffffffffffffffffffffffffffffffffffff1673ffffffffffffffffffffffffffffffffffffffff1681526020019081526020016000208581548110611f7957611f78613201565b5b90600052602060002090600302016001015461292c565b6064612942565b9050600061203c8273f1361dc7dfb724bd29fe7ade0cdf9785f2bc20e6600360003373ffffffffffffffffffffffffffffffffffffffff1673ffffffffffffffffffffffffffffffffffffffff168152602001908152602001600020868154811061200557612004613201565b5b906000526020600020906003020160000160009054906101000a900473ffffffffffffffffffffffffffffffffffffffff16611d06565b60018151811061204f5761204e613201565b5b60200260200101519050600360003373ffffffffffffffffffffffffffffffffffffffff1673ffffffffffffffffffffffffffffffffffffffff16815260200190815260200160002083815481106120aa576120a9613201565b5b90600052602060002090600302016002015481111561230f57600560003373ffffffffffffffffffffffffffffffffffffffff1673ffffffffffffffffffffffffffffffffffffffff1681526020019081526020016000206040518060600160405280600360003373ffffffffffffffffffffffffffffffffffffffff1673ffffffffffffffffffffffffffffffffffffffff168152602001908152602001600020868154811061215e5761215d613201565b5b906000526020600020906003020160000160009054906101000a900473ffffffffffffffffffffffffffffffffffffffff1673ffffffffffffffffffffffffffffffffffffffff168152602001600360003373ffffffffffffffffffffffffffffffffffffffff1673ffffffffffffffffffffffffffffffffffffffff16815260200190815260200160002086815481106121fc576121fb613201565b5b9060005260206000209060030201600101548152602001600360003373ffffffffffffffffffffffffffffffffffffffff1673ffffffffffffffffffffffffffffffffffffffff168152602001908152602001600020868154811061226457612263613201565b5b906000526020600020906003020160020154846122819190613860565b815250908060018154018082558091505060019003906000526020600020906003020160009091909190915060008201518160000160006101000a81548173ffffffffffffffffffffffffffffffffffffffff021916908373ffffffffffffffffffffffffffffffffffffffff160217905550602082015181600101556040820151816002015550506125c2565b600360003373ffffffffffffffffffffffffffffffffffffffff1673ffffffffffffffffffffffffffffffffffffffff16815260200190815260200160002083815481106123605761235f613201565b5b9060005260206000209060030201600201548110156125c157600660003373ffffffffffffffffffffffffffffffffffffffff1673ffffffffffffffffffffffffffffffffffffffff1681526020019081526020016000206040518060600160405280600360003373ffffffffffffffffffffffffffffffffffffffff1673ffffffffffffffffffffffffffffffffffffffff168152602001908152602001600020868154811061241457612413613201565b5b906000526020600020906003020160000160009054906101000a900473ffffffffffffffffffffffffffffffffffffffff1673ffffffffffffffffffffffffffffffffffffffff168152602001600360003373ffffffffffffffffffffffffffffffffffffffff1673ffffffffffffffffffffffffffffffffffffffff16815260200190815260200160002086815481106124b2576124b1613201565b5b906000526020600020906003020160010154815260200183600360003373ffffffffffffffffffffffffffffffffffffffff1673ffffffffffffffffffffffffffffffffffffffff168152602001908152602001600020878154811061251b5761251a613201565b5b9060005260206000209060030201600201546125379190613860565b815250908060018154018082558091505060019003906000526020600020906003020160009091909190915060008201518160000160006101000a81548173ffffffffffffffffffffffffffffffffffffffff021916908373ffffffffffffffffffffffffffffffffffffffff160217905550602082015181600101556040820151816002015550505b5b505080806125cf90613818565b915050611e96565b50565b7372bd489d3cf0e9cc36af6e306ff53e56d0f9efb481565b60005b600360003373ffffffffffffffffffffffffffffffffffffffff1673ffffffffffffffffffffffffffffffffffffffff16815260200190815260200160002080549050811015612807576000600360003373ffffffffffffffffffffffffffffffffffffffff1673ffffffffffffffffffffffffffffffffffffffff168152602001908152602001600020828154811061269257612691613201565b5b9060005260206000209060030201600201549050600061274982600360003373ffffffffffffffffffffffffffffffffffffffff1673ffffffffffffffffffffffffffffffffffffffff16815260200190815260200160002085815481106126fd576126fc613201565b5b906000526020600020906003020160000160009054906101000a900473ffffffffffffffffffffffffffffffffffffffff1673f1361dc7dfb724bd29fe7ade0cdf9785f2bc20e6611d06565b60018151811061275c5761275b613201565b5b602002602001015190506127af600460003373ffffffffffffffffffffffffffffffffffffffff1673ffffffffffffffffffffffffffffffffffffffff1681526020019081526020016000205482612958565b600460003373ffffffffffffffffffffffffffffffffffffffff1673ffffffffffffffffffffffffffffffffffffffff16815260200190815260200160002081905550505080806127ff90613818565b9150506125f5565b50565b606061080173ffffffffffffffffffffffffffffffffffffffff1663b46a8d6133846040518363ffffffff1660e01b8152600401612849929190613659565b6000604051808303816000875af1158015612868573d6000803e3d6000fd5b505050506040513d6000823e3d601f19601f820116820180604052508101906128919190613d6c565b905060005b8151811015612926578181815181106128b2576128b1613201565b5b602002602001015160200151600260003373ffffffffffffffffffffffffffffffffffffffff1673ffffffffffffffffffffffffffffffffffffffff168152602001908152602001600020600082825461290c91906137e4565b92505081905550808061291e90613818565b915050612896565b50919050565b6000818361293a9190613db5565b905092915050565b600081836129509190613e26565b905092915050565b6000818361296691906137e4565b905092915050565b6000604051905090565b600080fd5b600080fd5b600073ffffffffffffffffffffffffffffffffffffffff82169050919050565b60006129ad82612982565b9050919050565b6129bd816129a2565b81146129c857600080fd5b50565b6000813590506129da816129b4565b92915050565b6000602082840312156129f6576129f5612978565b5b6000612a04848285016129cb565b91505092915050565b6000819050919050565b612a2081612a0d565b82525050565b6000602082019050612a3b6000830184612a17565b92915050565b612a4a81612a0d565b8114612a5557600080fd5b50565b600081359050612a6781612a41565b92915050565b60008060408385031215612a8457612a83612978565b5b6000612a92858286016129cb565b9250506020612aa385828601612a58565b9150509250929050565b612ab6816129a2565b82525050565b6000606082019050612ad16000830186612aad565b612ade6020830185612a17565b612aeb6040830184612a17565b949350505050565b600080fd5b600080fd5b6000601f19601f8301169050919050565b7f4e487b7100000000000000000000000000000000000000000000000000000000600052604160045260246000fd5b612b4682612afd565b810181811067ffffffffffffffff82111715612b6557612b64612b0e565b5b80604052505050565b6000612b7861296e565b9050612b848282612b3d565b919050565b600067ffffffffffffffff821115612ba457612ba3612b0e565b5b612bad82612afd565b9050602081019050919050565b82818337600083830152505050565b6000612bdc612bd784612b89565b612b6e565b905082815260208101848484011115612bf857612bf7612af8565b5b612c03848285612bba565b509392505050565b600082601f830112612c2057612c1f612af3565b5b8135612c30848260208601612bc9565b91505092915050565b60008060408385031215612c5057612c4f612978565b5b600083013567ffffffffffffffff811115612c6e57612c6d61297d565b5b612c7a85828601612c0b565b9250506020612c8b85828601612a58565b9150509250929050565b60008160070b9050919050565b612cab81612c95565b82525050565b6000602082019050612cc66000830184612ca2565b92915050565b600081519050919050565b600082825260208201905092915050565b6000819050602082019050919050565b612d01816129a2565b82525050565b612d1081612a0d565b82525050565b606082016000820151612d2c6000850182612cf8565b506020820151612d3f6020850182612d07565b506040820151612d526040850182612d07565b50505050565b6000612d648383612d16565b60608301905092915050565b6000602082019050919050565b6000612d8882612ccc565b612d928185612cd7565b9350612d9d83612ce8565b8060005b83811015612dce578151612db58882612d58565b9750612dc083612d70565b925050600181019050612da1565b5085935050505092915050565b60006020820190508181036000830152612df58184612d7d565b905092915050565b600080600060608486031215612e1657612e15612978565b5b6000612e2486828701612a58565b9350506020612e35868287016129cb565b9250506040612e46868287016129cb565b9150509250925092565b600081519050919050565b600082825260208201905092915050565b6000819050602082019050919050565b6000612e888383612d07565b60208301905092915050565b6000602082019050919050565b6000612eac82612e50565b612eb68185612e5b565b9350612ec183612e6c565b8060005b83811015612ef2578151612ed98882612e7c565b9750612ee483612e94565b925050600181019050612ec5565b5085935050505092915050565b60006020820190508181036000830152612f198184612ea1565b905092915050565b6000819050919050565b6000612f46612f41612f3c84612982565b612f21565b612982565b9050919050565b6000612f5882612f2b565b9050919050565b6000612f6a82612f4d565b9050919050565b612f7a81612f5f565b82525050565b6000602082019050612f956000830184612f71565b92915050565b600060208284031215612fb157612fb0612978565b5b600082013567ffffffffffffffff811115612fcf57612fce61297d565b5b612fdb84828501612c0b565b91505092915050565b600081519050919050565b600082825260208201905092915050565b6000819050602082019050919050565b600081519050919050565b600082825260208201905092915050565b60005b8381101561304a57808201518184015260208101905061302f565b60008484015250505050565b600061306182613010565b61306b818561301b565b935061307b81856020860161302c565b61308481612afd565b840191505092915050565b600060408301600083015184820360008601526130ac8282613056565b91505060208301516130c16020860182612d07565b508091505092915050565b60006130d8838361308f565b905092915050565b6000602082019050919050565b60006130f882612fe4565b6131028185612fef565b93508360208202850161311485613000565b8060005b85811015613150578484038952815161313185826130cc565b945061313c836130e0565b925060208a01995050600181019050613118565b50829750879550505050505092915050565b6000602082019050818103600083015261317c81846130ed565b905092915050565b600082825260208201905092915050565b7f53656e64657220646f65736e2774206861766520726577617264732100000000600082015250565b60006131cb601c83613184565b91506131d682613195565b602082019050919050565b600060208201905081810360008301526131fa816131be565b9050919050565b7f4e487b7100000000000000000000000000000000000000000000000000000000600052603260045260246000fd5b60006040820190506132456000830185612aad565b6132526020830184612a17565b9392505050565b60008115159050919050565b61326e81613259565b811461327957600080fd5b50565b60008151905061328b81613265565b92915050565b6000602082840312156132a7576132a6612978565b5b60006132b58482850161327c565b91505092915050565b600081519050919050565b600082825260208201905092915050565b6000819050602082019050919050565b60006132f68383612cf8565b60208301905092915050565b6000602082019050919050565b600061331a826132be565b61332481856132c9565b935061332f836132da565b8060005b8381101561336057815161334788826132ea565b975061335283613302565b925050600181019050613333565b5085935050505092915050565b600060a0820190506133826000830188612a17565b61338f6020830187612a17565b81810360408301526133a1818661330f565b90506133b06060830185612aad565b6133bd6080830184612a17565b9695505050505050565b600067ffffffffffffffff8211156133e2576133e1612b0e565b5b602082029050602081019050919050565b600080fd5b60008151905061340781612a41565b92915050565b600061342061341b846133c7565b612b6e565b90508083825260208201905060208402830185811115613443576134426133f3565b5b835b8181101561346c578061345888826133f8565b845260208401935050602081019050613445565b5050509392505050565b600082601f83011261348b5761348a612af3565b5b815161349b84826020860161340d565b91505092915050565b6000602082840312156134ba576134b9612978565b5b600082015167ffffffffffffffff8111156134d8576134d761297d565b5b6134e484828501613476565b91505092915050565b7f65766d6f73000000000000000000000000000000000000000000000000000000600082015250565b6000613523600583613184565b915061352e826134ed565b602082019050919050565b600060408201905061354e6000830184612aad565b818103602083015261355f81613516565b905092915050565b600061357a61357584612b89565b612b6e565b90508281526020810184848401111561359657613595612af8565b5b6135a184828561302c565b509392505050565b600082601f8301126135be576135bd612af3565b5b81516135ce848260208601613567565b91505092915050565b6000602082840312156135ed576135ec612978565b5b600082015167ffffffffffffffff81111561360b5761360a61297d565b5b613617848285016135a9565b91505092915050565b600061362b82613010565b6136358185613184565b935061364581856020860161302c565b61364e81612afd565b840191505092915050565b600060408201905061366e6000830185612aad565b81810360208301526136808184613620565b90509392505050565b7f4661696c65642100000000000000000000000000000000000000000000000000600082015250565b60006136bf600783613184565b91506136ca82613689565b602082019050919050565b600060208201905081810360008301526136ee816136b2565b9050919050565b600060408201905061370a6000830185612a17565b6137176020830184612aad565b9392505050565b60006060820190506137336000830186612aad565b81810360208301526137458185613620565b90506137546040830184612a17565b949350505050565b61376581612c95565b811461377057600080fd5b50565b6000815190506137828161375c565b92915050565b60006020828403121561379e5761379d612978565b5b60006137ac84828501613773565b91505092915050565b7f4e487b7100000000000000000000000000000000000000000000000000000000600052601160045260246000fd5b60006137ef82612a0d565b91506137fa83612a0d565b9250828201905080821115613812576138116137b5565b5b92915050565b600061382382612a0d565b91507fffffffffffffffffffffffffffffffffffffffffffffffffffffffffffffffff8203613855576138546137b5565b5b600182019050919050565b600061386b82612a0d565b915061387683612a0d565b925082820390508181111561388e5761388d6137b5565b5b92915050565b600081549050919050565b600082825260208201905092915050565b60008190508160005260206000209050919050565b7f4e487b7100000000000000000000000000000000000000000000000000000000600052602260045260246000fd5b6000600282049050600182168061390c57607f821691505b60208210810361391f5761391e6138c5565b5b50919050565b60008190508160005260206000209050919050565b60008154613947816138f4565b613951818661301b565b9450600182166000811461396c5760018114613982576139b5565b60ff1983168652811515602002860193506139b5565b61398b85613925565b60005b838110156139ad5781548189015260018201915060208101905061398e565b808801955050505b50505092915050565b60006139ca838361393a565b905092915050565b6000600182019050919050565b60006139ea82613894565b6139f4818561389f565b935083602082028501613a06856138b0565b8060005b85811015613a4157848403895281613a2285826139be565b9450613a2d836139d2565b925060208a01995050600181019050613a0a565b50829750879550505050505092915050565b6000606082019050613a686000830186612aad565b613a756020830185612a17565b8181036040830152613a8781846139df565b9050949350505050565b7f4661696c656420746f20617070726f76652064656c6567617465206d6574686f60008201527f6400000000000000000000000000000000000000000000000000000000000000602082015250565b6000613aed602183613184565b9150613af882613a91565b604082019050919050565b60006020820190508181036000830152613b1c81613ae0565b9050919050565b6000604082019050613b386000830185612aad565b8181036020830152613b4a81846139df565b90509392505050565b7f4661696c656420746f20617070726f76652077697468647261772064656c656760008201527f61746f722072657761726473206d6574686f6400000000000000000000000000602082015250565b6000613baf603383613184565b9150613bba82613b53565b604082019050919050565b60006020820190508181036000830152613bde81613ba2565b9050919050565b6000604082019050613bfa6000830185612a17565b8181036020830152613c0c818461330f565b90509392505050565b600067ffffffffffffffff821115613c3057613c2f612b0e565b5b602082029050602081019050919050565b600080fd5b600080fd5b600060408284031215613c6157613c60613c41565b5b613c6b6040612b6e565b9050600082015167ffffffffffffffff811115613c8b57613c8a613c46565b5b613c97848285016135a9565b6000830152506020613cab848285016133f8565b60208301525092915050565b6000613cca613cc584613c15565b612b6e565b90508083825260208201905060208402830185811115613ced57613cec6133f3565b5b835b81811015613d3457805167ffffffffffffffff811115613d1257613d11612af3565b5b808601613d1f8982613c4b565b85526020850194505050602081019050613cef565b5050509392505050565b600082601f830112613d5357613d52612af3565b5b8151613d63848260208601613cb7565b91505092915050565b600060208284031215613d8257613d81612978565b5b600082015167ffffffffffffffff811115613da057613d9f61297d565b5b613dac84828501613d3e565b91505092915050565b6000613dc082612a0d565b9150613dcb83612a0d565b9250828202613dd981612a0d565b91508282048414831517613df057613def6137b5565b5b5092915050565b7f4e487b7100000000000000000000000000000000000000000000000000000000600052601260045260246000fd5b6000613e3182612a0d565b9150613e3c83612a0d565b925082613e4c57613e4b613df7565b5b82820490509291505056fea2646970667358221220610083e1e41a5db475ff4668d530c16ddf43b5198d9600f2c38e39e0f559605864736f6c634300081200332f636f736d6f732e646973747269627574696f6e2e763162657461312e4d73675365745769746864726177416464726573732f636f736d6f732e7374616b696e672e763162657461312e4d7367556e64656c65676174652f636f736d6f732e646973747269627574696f6e2e763162657461312e4d7367576974686472617744656c656761746f725265776172642f636f736d6f732e7374616b696e672e763162657461312e4d736744656c6567617465",
  "linkReferences": {},
  "deployedLinkReferences": {}
}